:100000007590FF75A0001200A075907FE590B47EFA
:100010000574311200C4B47D0574351200C4B47B7C
:100020000574391200C4B4770574431200C4759086
:10003000BFE590B4BE0574321200C4B4BD05743679
:100040001200C4B4BB0574301200C4B4B7057444C4
:100050001200C47590DFE590B4DE0574331200C45D
:10006000B4DD0574371200C4B4DB0574411200C45A
:10007000B4D705742A1200C47590EFE590B4EE056C
:1000800074341200C4B4ED0574381200C4B4EB0526
:1000900074421200C4B4E70574231200C4020009BC
:1000A000743811B911D2740111B911D2740F11B988
:1000B00011D2748011B911D222F5A0C2B0D2B111FF
:1000C000D2C2B122F5A0D2B0D2B111D2C2B11200C7
:1000D000DB2279E77A27D9FEDAFC22797C7A9A7BCF
:0800E00008D9FEDAFCDBFA226C
:00000001FF
