:02000000A22B31
:06000600000000000800EC
:0E000C00213083120313FD00FD0B0A280800AB
:10001A000F3083120313FC004730FD00FD0B132839
:0A002A00FC0B132800000000080082
:0E003400F201F101F001F801F30100300800C3
:10004200710DF80DF90D7408F8027508031C750F8F
:10005200F902F00DF10D0F30FC00710DF80DF90DE4
:100062007408701C3A28F8027508031C750FF9020F
:100072003F28F80775080318750FF907F00DF10D01
:10008200FC0B2E2870184B287408F8077508031803
:08009200750FF90700000800DA
:10009A0083120313C21B5328861254288616421B46
:1000AA005828061259280616C21A5D2886115E2893
:1000BA008615421A6228061163280615331867281E
:1000CA00061468280610861403208610C2196F28A1
:1000DA008612702886164219742806127528061682
:1000EA00C218792886117A28861542187E280611A0
:1000FA007F280615331883280614842806108614C8
:10010A0003208610331C8B280D208C28062008001B
:10011A007B15FB1F97280130F300F201F101F00172
:08012A00FA0DF20CFF30080091
:08013200FA1FF213003008006F
:10013A00831203137408003A031DAC287508003AA9
:10014A00031DAC28FF30F0007F30F100052983122F
:10015A000313FD01F901F801710870040319003451
:10016A0071087506FA00FA1BFD09FB01F51FC22882
:10017A00F409F509F40A0319F50AF11FC928F00967
:10018A00F109F00A0319F10A71087504FA00FA1B59
:10019A00DE2821207B18F128FD1F0034F009F1091F
:1001AA00F00A0319F10AF809F909F80A0319F90A10
:1001BA000034F51FED28F11BE9287108F9007008D1
:1001CA00F800F101F001D128F101F001F00A003440
:1001DA00F109F009FB0ACE28F80A0319F90A74088A
:1001EA007802031DD12875087902031DD128F90167
:1001FA00F801F00A0319F10AF11FD1280000FF34AF
:02020A000800EA
:10020C00FB14FB1F1029FF30F300F200F100F0008B
:08021C00FA0DF20CFF3008009E
:10022400A0017208031D27297108F2007008F1006B
:10023400F001A0157208031D27297108F200F101CD
:10024400A01120167208031935292008F302031D92
:10025400031C39290310F21B3D29F00DF10DF20D99
:10026400F30B2D2939290130FC001A2040290230D2
:0E027400FC008D2040290430FC009920080079
:100282000E3083120313FD00FD0B45290000080008
:100292008312031333103F08C2004D2033140800A9
:1002A2007B14FB1F5C29F201FA1FFF30F200F10000
:0A02B200F000FA0DF20CFF30080016
:1002BC007029803083120313BF008329C030BF0024
:1002CC0083299430BF008329D430BF008329803028
:1002DC00BF008329831203133F08013A03195F29D6
:1002EC003F08023A031964293F08033A03196729A6
:1002FC003F08043A03196A296D294003F0003F08AE
:10030C00F0077008BF0033147008C2004D20331082
:0A031C004108C2004D203314080010
:0E032600831203133A088A0039088200080087
:10033400643083120313F4000030F5003708F00032
:100344003808F1009D200230BF000630C00070085C
:10035400303EC1005E216430F4000030F5003708FF
:10036400F0003808F1009D207808F0007908F100C9
:100374000A30F4000030F5009D200230BF00073041
:10038400C0007008303EC1005E210A30F400003025
:10039400F5003708F0003808F1009D207808F000D7
:1003A4007908F1000230BF000830C0007008303E08
:0603B400C1005E210800FB
:1003BA0083120313FB01730803191A2A7208FA003D
:1003CA00F2178E30F302F31F1D2AF309F30A0830DD
:1003DA007302031C002AF300F10D7208F100F20106
:1003EA0008307302031C002AF300F10DF1017308AF
:1003FA00031D0310082A73080319082A0310F20CB4
:10040A00F10CF30B032A7B1B711C122A031C122A00
:10041A00F10A0319F20AF21B292AFA1F2C2AF209F5
:10042A00F109F10A0319F20A2C2AF201F1012C2A24
:10043A007B14FB1F2F2AF201FA1F2F2AFF30F2002A
:10044A00F100FA0DF20C2F2A0130FC00312A00309B
:10045A00FC00312AFF30FC00FC080319352A51211F
:0A046A007108F0007208F1000800AC
:10047400831203139F01C0309F0483161F179F1715
:1004840083123B08F000F00D7010F00D7010F00DA9
:10049400701070089F041F1441211F151F1D542A3A
:1004A4000000502A1F101E08F100F00183161E08D8
:0804B400F0040030F10408001F
:1004BC00831203137008F8007108F000F101F201C7
:1004CC00F301FB01FC019630F300FA01F01F742AD2
:1004DC00F809F009F80A0319F00AFA177008F10084
:0C04EC007808F000F801F201122108006D
:1004F800831203137008F100F0010830FC00710842
:10050800F40C03188B2AFC0B842AF1010034031025
:10051800902AF40C0318F107F10CF00CFC0B8D2A4F
:020528000800C9
:10052A00FF3083120313B400FF30B500FF30B6006A
:10053A00FF309F01C0309F0483161F179F17831235
:04054A001F14080072
:10054E0093218A110A128000840AB90A0319BA0A81
:08055E00F003031DA72A0800A9
:1005660083160313861006100611861106128612CC
:1005760083128610061086120612861106110D20A9
:100586000D200D20861506158614032086100D20D5
:100596008614032086100D208614032086100D2055
:1005A60006118614032086100D208614032086105B
:1005B600861186168614032086100D2086120615CF
:1005C60086140320861006118614032086100D203B
:1005D60086140320861006158614032086100D2027
:1005E600061186140320861086160616861506152D
:0C05F6008614032086100D20331408002A
:1006020083120313FB017308031D77080319582B88
:1006120072087606FA007708F3077E30031C152B62
:10062200F30203185B2B182BF302031C5E2B7208D8
:10063200F8007108FC007008FD00F817F6170310A7
:10064200F201F101F0011830A0007D1C322B740878
:10065200F00775080318750FF10776080318760F6F
:10066200F207F20CF10CF00CF80CFC0CFD0C031070
:10067200A00B262BF21B422BF80DF00DF10DF20D03
:10068200F3037B1B701C542BF81F542BF00A031925
:10069200F10A0319F20A031D542BF20CF10CF00CAF
:1006A200F30A03195B2BFA1FF2130030602B01309F
:1006B2001A20602B02300621602B04308D200000AE
:0206C20008002E
:1006C400742B803083120313BB00872BC030BB0014
:1006D400872B9430BB00872BD430BB00872B803012
:1006E400BB00872B831203133B08013A0319632BC6
:1006F4003B08023A0319682B3B08033A03196B2B96
:100704003B08043A03196E2B712B3C03F0003B08A1
:10071400F0077008BB007008C2004D203310BE0102
:100724003E083D07840000080319A02B3E083D073E
:1007340084000008BF004921BE0A922B331408002C
:10074400543083120313A1004530A2004D30A3009E
:100754005030A4004530A5005230A6004130A70017
:100764005430A8005530A9005230AA004530AB00DF
:100774003A30AC00AD019522B3220130C2004D20C5
:100784000C30C2004D200130BB000330BC002130CE
:10079400BD0062230230BF000930C000DF30C10059
:1007A4005E210230BF000A30C0004330C1005E2128
:1007B400BB013A2270088312B2000530F4007C2297
:1007C400FF30F4000330F5009D205E227008AE0077
:1007D4007108AF007208B0007308B1000030F40073
:1007E4000030F5004830F6008530F7000123DD21A4
:1007F4007008B7007108B8001A30FC00F830FD002A
:10080400FD0B022CFC0B022C00009A21DA2B092C84
:02400E004A2F37
:00000001FF
