:02000000722C60
:0E000600213083120313FD00FD0B07280800B4
:0E001400F201F101F001F801F30100300800E3
:100022007B15FB1F1B280130F300F201F101F001E7
:08003200FA0DF20CFF3008008A
:06003A00000000000800B8
:08004000FA1FF2130030080062
:100048000F3083120313FC004730FD00FD0B2A28F4
:0A005800FC0B2A280000000008003D
:10006200710DF80DF90D7408F8027508031C750F6F
:10007200F902F00DF10D0F30FC00710DF80DF90DC4
:100082007408701C4A28F8027508031C750FF902DF
:100092004F28F80775080318750FF907F00DF10DD1
:1000A200FC0B3E2870185B287408F80775080318C3
:0800B200750FF90700000800BA
:0600BA00FB15FF300800F9
:1000C0007B14FB1F6B28F201FA1FFF30F200F100D6
:0A00D000F000FA0DF20CFF300800FA
:1000DA0083120313DF1B73288612742886165F1B8C
:1000EA007828061279280616DF1A7D2886117E28B6
:1000FA0086155F1A8228061183280615481887284C
:10010A0006148828061086141D208610DF198F28E9
:10011A008612902886165F199428061295280616C4
:10012A00DF18992886119A2886155F189E280611C5
:10013A009F2806154818A3280614A4280610861412
:10014A001D208610481CAB282420AC280320080058
:10015A000E3083120313FD00FD0BB12800000800C6
:10016A00A0017208031DCA287108F2007008F10084
:10017A00F001A0157208031DCA287108F200F101E6
:10018A00A011201672080319D8282008F302031DAB
:10019A00031CDC280310F21BE028F00DF10DF20D10
:1001AA00F30BD028DC280130FC000A20E3280230B7
:0E01BA00FC001120E3280430FC002020080087
:1001C800FB14FB1FEE28FF30F300F200F100F000F3
:0801D800FA0DF20CFF300800E3
:1001E00083120313FB017308031D770803194729C2
:1001F00072087606FA007708F3077E30031C04299C
:10020000F30203184A290729F302031C4D29720837
:10021000F8007108FC007008FD00F817F6170310CD
:10022000F201F101F0011830A0007D1C21297408B1
:10023000F00775080318750FF10776080318760F95
:10024000F207F20CF10CF00CF80CFC0CFD0C031096
:10025000A00B1529F21B3129F80DF00DF10DF20D4F
:10026000F3037B1B701C4329F81F4329F00A031971
:10027000F10A0319F20A031D4329F20CF10CF00CE8
:10028000F30A03194A29FA1FF21300304F290130EB
:100290000A204F290230E4204F29043011200000A9
:0202A000080054
:1002A200831203139F01C0309F0483161F179F17E9
:1002B20083125C08F000F00D7010F00D7010F00D5C
:1002C200701070089F041F14AD201F151F1D6B298D
:1002D200000067291F101E08F100F00183161E0896
:0802E200F0040030F1040800F3
:1002EA00831203137408003A031D84297508003A1F
:1002FA00031D8429FF30F0007F30F100DD298312CD
:10030A000313FD01F901F80171087004031900349F
:10031A0071087506FA00FA1BFD09FB01F51F9A29F7
:10032A00F409F509F40A0319F50AF11FA129F009DC
:10033A00F109F00A0319F10A71087504FA00FA1BA7
:10034A00B62931207B18C929FD1F0034F009F109AB
:10035A00F00A0319F10AF809F909F80A0319F90A5E
:10036A000034F51FC529F11BC1297108F90070086D
:10037A00F800F101F001A929F101F001F00A0034B5
:10038A00F109F009FB0AA629F80A0319F90A7408FF
:10039A007802031DA92975087902031DA929F90103
:1003AA00F801F00A0319F10AF11FA9290000FF3424
:0203BA00080039
:1003BC00831203137008F8007108F000F101F201C8
:1003CC00F301FB01FC019630F300FA017008F10017
:0C03DC007808F000F801F201B5200800DC
:1003E8008312031348105C08DF006D2048140800CE
:1003F8000E2A803083120313DC00212AC030DC006F
:10040800212A9430DC00212AD430DC00212A8030D3
:10041800DC00212A831203135C08013A0319FD2921
:100428005C08023A0319022A5C08033A0319052AF0
:100438005C08043A0319082A0B2A5D03F0005C08DB
:10044800F0077008DC0048147008DF006D204810C1
:0A0458005E08DF006D204814080064
:10046200831203137408003A031D4C2A7508003ADC
:10047200031D4C2A7608003A031D4C2A7708003ADD
:10048200031D4C2AFF30F000FF30F1007F30F200F4
:10049200FF30F300E72A8312031377080319DB2ADC
:1004A20073080319DE2A720876068039FA00F217F9
:1004B200F617A0017208F8007108FC007008FD0030
:1004C2007408FD027508031C750FFC027608031CF4
:1004D200760FF802F801FC01FD01031C772A0310D4
:1004E200F20CF10CF00CF80C0130A0007708F302CA
:1004F200031C812A7E302007F3070318E12A862A8B
:100502007E302007F307031CE42A1830FA07FD0D9A
:10051200FC0DF80DF00DF10DF20DA00D7408F002B6
:100522007508031C750FF1027608031C760FF202A0
:10053200760DA004201C9F2A7D14AA2A7408F007B5
:1005420075080318750FF10776080318760AF20783
:100552007D10FA031F307A05031D882A7B1B7D1C40
:10056200D12A0310F00DF10DF20DA00D7408F00266
:100572007508031C750FF1027608031C760FF20250
:10058200760D20040139FD070318FC0A0319F80A45
:10059200031DD12AF80CFC0CFD0CF30A0319E12A05
:1005A200FA1FF8137808F2007C08F1007D08F000C9
:1005B2000030E62A01305D20E62A02300A20E62ACF
:0E05C2000430E420E62A083011200000080072
:1005D00083120313FB0173080319252B7208FA0019
:1005E000F2178E30F302F31F282BF309F30A0830B9
:1005F0007302031C0B2BF300F10D7208F100F201E2
:1006000008307302031C0B2BF300F10DF10173088A
:10061000031D0310132B73080319132B0310F20C83
:10062000F10CF30B0E2B7B1B711C1D2B031C1D2BC4
:10063000F10A0319F20AF21B342BFA1F372BF209C5
:10064000F109F10A0319F20A372BF201F101372BF4
:100650007B14FB1F3A2BF201FA1F3A2BFF30F200FA
:10066000F100FA0DF20C3A2B0130FC003C2B00306B
:10067000FC003C2BFF30FC00FC080319402B6020E1
:0A0680007108F0007208F100080094
:0E068A00831203134D088A004C0882000800FA
:10069800643083120313F4000030F5005208F000B0
:1006A8005308F10075210230DC000630DD007008C7
:1006B800303EDE00FC216430F4000030F5005208C2
:1006C800F0005308F10075217808F0007908F1006E
:1006D8000A30F4000030F50075210230DC000730E4
:1006E800DD007008303EDE00FC210A30F4000030E6
:1006F800F5005208F0005308F10075217808F00061
:100708007908F1000230DC000830DD007008303E66
:06071800DE00FC210800D8
:10071E00013083120313DC005121DE217008CE005C
:10072E007108CF007208D0007308D1000030F400B9
:10073E000030F5002030F6008130F700F020003058
:10074E00F400C030F5007F30F6008830F70031221B
:10075E007008D4007108D5007208D6007308D7004F
:10076E000030F4000030F5004830F6008530F70018
:0E077E00F020E8227008D2007108D3000800B5
:10078C00D82B803083120313D800EB2BC030D80049
:10079C00EB2B9430D800EB2BD430D800EB2B8030E3
:1007AC00D800EB2B831203135808013A0319C72BFB
:1007BC005808023A0319CC2B5808033A0319CF2BCB
:1007CC005808043A0319D22BD52B5903F0005808BA
:1007DC00F0077008D8007008DF006D204810DB01AE
:1007EC005B085A07840000080319042C5B085A079D
:1007FC0084000008DC00F421DB0AF62B4814080006
:10080C00FF3083120313C900FF30CA00FF30CB0046
:10081C00FF309F01C0309F0483161F179F17831250
:04082C001F1408008D
:1008300045238A110A128000840ACC0A0319CD0AC2
:08084000F003031D182C080051
:1008480083160313861006100611861106128612E7
:1008580083128610061086120612861106112420AD
:10086800242024208615061586141D208610242091
:1008780086141D208610242086141D20861024200E
:10088800061186141D208610242086141D2086102B
:100898008611861686141D208610242086120615B9
:1008A80086141D208610061186141D20861024200B
:1008B80086141D208610061586141D2086102420F7
:1008C800061186141D20861086160616861506152E
:0C08D80086141D208610242048140800FF
:1008E400E42406242424831687018312870101301B
:1008F400DF006D200C30DF006D200130D8000130A6
:10090400D9002D30DA00C6230230D8000330D900D4
:100914002130DA00C6231F30FB007130FC001E308A
:10092400FD00FD0B932CFC0B932CFB0B932C000074
:100934000130DF006D200130D8000330D9003B3096
:10094400DA00C6230230DC000930DD00DF30DE00CF
:10095400FC210230DC000A30DD004330DE00FC21E3
:0C096400850187148F234C23B32CB72C83
:1009C80021308400273083120313F000BD30CC009F
:0809D8000430CD0018240800D2
:10097A0054344834453452344D344F344D3445346C
:08098A005434453452340034AA
:100992002E342E342E3444344934473449345434BA
:0C09A20041344C342E342E342E340034FA
:1009AE00543445344D345034453452344134543437
:0A09BE005534523445343A34003405
:02400E004A2F37
:00000001FF
